:100000000C942A000C9447000C9447000C94470071
:100010000C9447000C9447000C9464020C94470025
:100020000C9447000C9447000C9447000C94470034
:100030000C9447000C9447000C9447000C94470024
:100040000C9447000C9447000C9447000C94520207
:100050000C94470011241FBECFE5D4E0DEBFCDBF16
:1000600010E0A0E6B0E0E4E7F5E002C005900D92F4
:10007000A03AB107D9F720E0A0EAB0E001C01D9294
:10008000A83AB207E1F70E94A5020C94B8020C94BA
:10009000000082B3806882BB00C082B38F7782BBCE
:1000A0000895CF93DF93D82F662321F08BB3806818
:1000B0008BBB03C08BB38F778BBB82B38F7B82BB31
:1000C00081B38F6081BBC2B3C07F8D2F82958F704B
:1000D0008C2B82BB0E944900DF70DC2BD2BB0E94BC
:1000E0004900CF60C2BBDF91CF910895882321F0F2
:1000F0008BB380688BBB03C08BB38F778BBB82B312
:10010000806482BB81B3807F81BB82B3806882BB05
:1001100000C090B39295907F82B38F7782BB00C06E
:1001200082B3806882BB00C080B38F7022B32F7708
:1001300022BB892B089580E00E9476008823DCF39F
:1001400083E090E00197F1F780E00E947600089547
:10015000CF93C82F0E949B0060E08C2F0E9451001B
:10016000CF910895611104C080580E94A80008959D
:1001700080540E94A800089581E00E94A80008957C
:10018000CF93C82F0E949B00CA3049F4803410F4EA
:1001900080E401C080E080580E94A80004C061E0B3
:1001A0008C2F0E945100CF910895CF93DF93FC01D3
:1001B00003C00E94C000FE01EF01219680818111E1
:1001C000F8CFDF91CF9108951F93CF93DF93182F2E
:1001D00081B38F6081BB8AB380688ABB81B380643E
:1001E00081BB81B3806881BB80E393E70197F1F71E
:1001F00082B3826082BB82B3816082BB0E9449006D
:1002000080EF93E20197F1F70E944900C5E7D0E043
:10021000CE010197F1F70E944900CE010197F1F755
:1002200082B38E7F82BB0E9449002197F1F788E25A
:100230000E94A80088E00E94A8000E94BC0086E0FE
:100240000E94A800812F0E94A800DF91CF911F91EA
:10025000089580EF87BB8FEF88BB88B38F7088BB12
:10026000000086B38F708093A6008F30B1F78FEFB8
:100270009FE80197F1F700C0000086B38F7080936C
:10028000A6008F30A1F396E626EE80E09150204044
:100290008040E1F786B38F708093A6008F3039F3EA
:1002A0008FEE88BB000086B38F708093A6008F30DE
:1002B00019F01092A70027C08FED88BB000086B30D
:1002C0008F708093A6008F3021F081E08093A7008B
:1002D0001AC08FEB88BB000086B38F708093A60096
:1002E0008F3021F082E08093A7000DC08FE788BB9C
:1002F000000086B38F708093A6008F3009F4A9CFD9
:1003000083E08093A7008091A6008E3059F4E0919D
:10031000A700F0E0EE0FFF1FEE0FFF1FEA59FF4F9F
:10032000808108958D3059F4E091A700F0E0EE0F40
:10033000FF1FEE0FFF1FEA59FF4F818108958B3099
:1003400059F4E091A700F0E0EE0FFF1FEE0FFF1F42
:10035000EA59FF4F82810895E091A700F0E0EE0F87
:10036000FF1FEE0FFF1FEA59FF4F8381089515C04D
:1003700085B3805885BB2FEF8FE392E021508040FA
:100380009040E1F700C0000080916400909165000A
:100390000197909365008093640080916400909130
:1003A00065001816190624F308958091A000909115
:1003B000A100019749F492B380E2892782BB8CE2C5
:1003C00091E09BBD8ABD089592B380E2892782BBEC
:1003D00081E490E09BBD8ABD08959091A200E091D8
:1003E0006000F09161008081981306C01092A10016
:1003F0001092A0000E94D50160916200709163008C
:1004000044E050E082EA90E00E94AA02892B79F051
:100410000E94BC0086E790E00E94D50086E090E054
:1004200090936500809364000E94B70116C00E94FB
:10043000BC0087E890E00E94D50082E090E09093B5
:100440006500809364000E94B70181E090E0909382
:10045000A1008093A0000E94D50184E0E2EAF0E0D0
:10046000DF011D928A95E9F70895CF93C0E012C08D
:100470000E942901EC2FF0E0EE55FF4F808360E0F1
:100480008C2F0E94B2000E94BC0082EA90E00E9481
:10049000D500CF5FC43060F31092A6000E94ED013A
:1004A000CF9108951F920F920FB60F9211248F9340
:1004B0009F939BB380E489278BBB9F918F910F9073
:1004C0000FBE0F901F9018951F920F920FB60F92AC
:1004D00011248F939F938091A0009091A100019788
:1004E00021F492B380E2892782BB9F918F910F9074
:1004F0000FBE0F901F9018958AB380648ABB8FEF50
:1005000087BB18BA84B3806884BB80E885BB81B39D
:10051000806281BB1DBC1CBC83EC99E097BD86BD8D
:1005200082E88FBD8BE18EBD81E490E09BBD8ABDEA
:1005300089E683BF88EC8CBF82E089BF78948CE029
:100540000E94E4000E94BC0008950E947C020E9468
:100550003502FDCFFB01DC014150504030F08D9160
:100560000190801919F40020B9F7881B990B0895A0
:04057000F894FFCF2D
:1005740096009B0006003134372A32353830333642
:100584003923414243444E65746F636E61206C6F3E
:100594007A696E6B612100546F636E61206C6F7AAF
:1005A400696E6B6121002323232300313131310033
:00000001FF
