:100000000C942A000C9447000C9447000C94470071
:100010000C9447000C9447000C9455030C94470033
:100020000C9447000C9447000C9447000C94470034
:100030000C9447000C9447000C9447000C94470024
:100040000C9447000C9447000C9447000C94430315
:100050000C94470011241FBECFE5D4E0DEBFCDBF16
:1000600010E0A0E6B0E0ECEDF9E002C005900D92E2
:10007000AC3CB107D9F720E0ACECB0E001C01D9278
:10008000AA3FB207E1F70E94AC030C94EC040C9475
:10009000000082B3806882BB00C082B38F7782BBCE
:1000A0000895CF93DF93D82F662321F08BB3806818
:1000B0008BBB03C08BB38F778BBB82B38F7B82BB31
:1000C00081B38F6081BBC2B3C07F8D2F82958F704B
:1000D0008C2B82BB0E944900DF70DC2BD2BB0E94BC
:1000E0004900CF60C2BBDF91CF910895882321F0F2
:1000F0008BB380688BBB03C08BB38F778BBB82B312
:10010000806482BB81B3807F81BB82B3806882BB05
:1001100000C090B39295907F82B38F7782BB00C06E
:1001200082B3806882BB00C080B38F7022B32F7708
:1001300022BB892B089580E00E9476008823DCF39F
:1001400083E090E00197F1F780E00E947600089547
:10015000CF93C82F0E949B0060E08C2F0E9451001B
:10016000CF910895611104C080580E94A80008959D
:1001700080540E94A800089581E00E94A80008957C
:10018000CF93C82F0E949B00CA3049F4803410F4EA
:1001900080E401C080E080580E94A80004C061E0B3
:1001A0008C2F0E945100CF910895CF93DF93FC01D3
:1001B00003C00E94C000FE01EF01219680818111E1
:1001C000F8CFDF91CF9108951F93CF93DF93182F2E
:1001D00081B38F6081BB8AB380688ABB81B380643E
:1001E00081BB81B3806881BB80E393E70197F1F71E
:1001F00082B3826082BB82B3816082BB0E9449006D
:1002000080EF93E20197F1F70E944900C5E7D0E043
:10021000CE010197F1F70E944900CE010197F1F755
:1002200082B38E7F82BB0E9449002197F1F788E25A
:100230000E94A80088E00E94A8000E94BC0086E0FE
:100240000E94A800812F0E94A800DF91CF911F91EA
:10025000089580EF87BB8FEF88BB88B38F7088BB12
:10026000000086B38F708093F8008F30B1F78FEF66
:100270009FE80197F1F700C0000086B38F7080936C
:10028000F8008F30A1F396E626EE80E091502040F2
:100290008040E1F786B38F708093F8008F3039F398
:1002A0008FEE88BB000086B38F708093F8008F308C
:1002B00019F01092F90027C08FED88BB000086B3BB
:1002C0008F708093F8008F3021F081E08093F900E7
:1002D0001AC08FEB88BB000086B38F708093F80044
:1002E0008F3021F082E08093F9000DC08FE788BB4A
:1002F000000086B38F708093F8008F3009F4A9CF87
:1003000083E08093F9008091F8008E3059F4E091F9
:10031000F900F0E0EE0FFF1FEE0FFF1FEA59FF4F4D
:10032000808108958D3059F4E091F900F0E0EE0FEE
:10033000FF1FEE0FFF1FEA59FF4F818108958B3099
:1003400059F4E091F900F0E0EE0FFF1FEE0FFF1FF0
:10035000EA59FF4F82810895E091F900F0E0EE0F35
:10036000FF1FEE0FFF1FEA59FF4F8381089515C04D
:1003700085B3805885BB2FEF8FE392E021508040FA
:100380009040E1F700C0000080916400909165000A
:100390000197909365008093640080916400909130
:1003A00065001816190624F30895CF93DF93CDB78F
:1003B000DEB760970FB6F894DEBF0FBECDBFBC01AD
:1003C00080E090E00E94E7030E944D040E94B10388
:1003D000DC01CB014AE0BE016F5F7F4F0E94B70492
:1003E0008091F0009091F100009759F460E080E076
:1003F0000E94B2000E94BC00CE0101960E94D5006E
:1004000014C0019791F40E94BC0060E080E00E945B
:10041000B2008CED90E00E94D50061E080E00E9487
:10042000B200CE0101960E94D5008091EE0090911D
:10043000EF00C29761F48091EC009091ED00C297BB
:1004400031F40E94BC0086E790E00E94D5006096DF
:100450000FB6F894DEBF0FBECDBFDF91CF910895E8
:100460008091F2009091F3008130910549F492B3AC
:1004700080E2892782BB8CE291E09BBD8ABD089512
:10048000892BD1F492B380E2892782BB81E490E08A
:100490009BBD8ABD1092EF001092EE001092ED000D
:1004A0001092EC001092F1001092F0000E94BC003B
:1004B00083E890E00E94D500089584B195B188301A
:1004C000924000F584B195B18A3E9140D8F0809178
:1004D000F0009091F100892BA9F487B1816087B970
:1004E00081E090E09093F1008093F00082E390E04F
:1004F0009093EF008093EE004AE06CED70E00E9474
:10050000B70416C084B195B18830924088F484B1A4
:1005100095B18A3E914060F08091F0009091F10099
:10052000019731F482E390E09093ED008093EC002A
:1005300086B1806486B9349BFECF24B135B1ADEC71
:10054000BCEC0E949A04969587959695879596950A
:1005500087950E94D5018FEF9FE523E08150904061
:100560002040E1F700C000008091EE009091EF0084
:10057000C29709F0A2CF8091EC009091ED00C29754
:1005800009F09BCF81E090E09093F3008093F2001C
:100590000E9430020895609160007091610044E013
:1005A00050E084EF90E00E94A904892B69F48091C7
:1005B000F2009091F300019739F41092F300109239
:1005C000F2000E9430023AC06091620070916300B4
:1005D00044E050E084EF90E00E94A904892BA9F048
:1005E0008091F2009091F300892B79F40E94BC0075
:1005F00081E990E00E94D50086E090E0909365004C
:10060000809364000E94B70119C00E94BC0082EA76
:1006100090E00E94D50082E090E090936500809386
:1006200064000E94B7012FEF8FEB96E021508040CD
:100630009040E1F700C000000E945D0284E0E4EF1A
:10064000F0E0DF011D928A95E9F70895CF93C0E0AD
:1006500012C00E942901EC2FF0E0EC50FF4F808384
:1006600060E08C2F0E94B2000E94BC0084EF90E0FA
:100670000E94D500CF5FC43060F31092F8000E9452
:10068000CB02CF9108951F920F920FB60F921124B3
:100690008F939F939BB380E489278BBB9F918F910E
:1006A0000F900FBE0F901F9018951F920F920FB6CC
:1006B0000F9211248F939F938091F2009091F300F9
:1006C000019721F492B380E2892782BB9F918F9199
:1006D0000F900FBE0F901F9018958AB380648ABB4D
:1006E0008FEF87BB18BA84B3806884BB80E885BB72
:1006F00081B3806281BB1DBC1CBC83EC99E097BDBB
:1007000086BD82E88FBD8BE18EBD81E490E09BBD0C
:100710008ABD89E683BF88EC8CBF82E089BF78946C
:1007200080E487B986E886B98CE00E94E4000E94E4
:10073000BC0081EB90E00E94D50080E1ECEDF0E0A0
:10074000DF01982F1D929A95E9F7ECECF0E0DF01BC
:100750001D928A95E9F708950E946D030E94260371
:10076000FDCF0E94B8036894B1110C94470408951A
:100770000E942C0488F09F5798F0B92F9927B75101
:10078000B0F0E1F0660F771F881F991F1AF0BA9535
:10079000C9F714C0B13091F00E944604B1E0089549
:1007A0000C944604672F782F8827B85F39F0B93F3B
:1007B000CCF3869577956795B395D9F73EF49095E8
:1007C0008095709561957F4F8F4F9F4F0895E89466
:1007D00009C097FB3EF490958095709561957F4F89
:1007E0008F4F9F4F9923A9F0F92F96E9BB27939537
:1007F000F695879577956795B795F111F8CFFAF447
:10080000BB0F11F460FF1BC06F5F7F4F8F4F9F4F77
:1008100016C0882311F096E911C0772321F09EE8D5
:10082000872F762F05C0662371F096E8862F70E03B
:1008300060E02AF09A95660F771F881FDAF7880F15
:100840009695879597F9089557FD9058440F551F31
:1008500059F05F3F71F04795880F97FB991F61F042
:100860009F3F79F087950895121613061406551FB9
:10087000F2CF4695F1DF08C0161617061806991F25
:10088000F1CF86957105610508940895E894BB271A
:1008900066277727CB0197F908950E942C04E8F08A
:1008A0009E37E8F09639B8F49E3848F4672F782FD1
:1008B0008827985FF9CF86957795679593959539B1
:1008C000D0F3B62FB1706B0F711D811D20F4879589
:1008D0007795679593950C9471040C948C040C9403
:1008E0004704882371F4772321F09850872B762FC3
:1008F00007C0662311F499270DC09051862B70E034
:1009000060E02AF09A95660F771F881FDAF7880F44
:100910009695879597F908959F3F31F0915020F46F
:10092000879577956795B795880F911D96958795CB
:1009300097F90895A29FB001B39FC001A39F700DC6
:10094000811D1124911DB29F700D811D1124911DD7
:100950000895FB01DC014150504030F08D91019031
:10096000801919F40020B9F7881B990B0895BB274B
:100970004A3031F4992322F4BDE2909581959F4F3E
:100980000C94C304BB27FB015527AA27880F991F86
:10099000AA1FA41710F0A41B83955051B9F7A05DAE
:1009A000AA3308F0A95DA193009779F7B111B1932B
:1009B0001192CB010C94DC04DC01FC01672F7191D6
:1009C0007723E1F7329704C07C916D937083629135
:0C09D000AE17BF07C8F30895F894FFCFDE
:1009DC00C100C60006003134372A32353830333680
:1009EC003923414243444F74766F72656E207365B0
:1009FC00662100536566207A6174766F72656E218C
:100A0C00004E65746F636E61206C6F7A696E6B61FA
:100A1C002100546F636E61206C6F7A696E6B61217B
:100A2C000055706973697465206C6F7A696E6B75AB
:0C0A3C000023232323003131313100005E
:00000001FF
