:100000000C942A000C9447000C9447000C94470071
:100010000C9447000C9447000C94B7030C944700D1
:100020000C9447000C9447000C9447000C94470034
:100030000C9447000C9447000C9447000C94470024
:100040000C9447000C9447000C9447000C94A503B3
:100050000C94470011241FBECFE5D4E0DEBFCDBF16
:1000600010E0A0E6B0E0E0E9FAE002C005900D92F1
:10007000A43DB107D9F720E0A4EDB0E001C01D9286
:10008000A03FB207E1F70E9406040C9446050C94C9
:10009000000082B3806882BB00C082B38F7782BBCE
:1000A0000895CF93DF93D82F662321F08BB3806818
:1000B0008BBB03C08BB38F778BBB82B38F7B82BB31
:1000C00081B38F6081BBC2B3C07F8D2F82958F704B
:1000D0008C2B82BB0E944900DF70DC2BD2BB0E94BC
:1000E0004900CF60C2BBDF91CF910895882321F0F2
:1000F0008BB380688BBB03C08BB38F778BBB82B312
:10010000806482BB81B3807F81BB82B3806882BB05
:1001100000C090B39295907F82B38F7782BB00C06E
:1001200082B3806882BB00C080B38F7022B32F7708
:1001300022BB892B089580E00E9476008823DCF39F
:1001400083E090E00197F1F780E00E947600089547
:10015000CF93C82F0E949B0060E08C2F0E9451001B
:10016000CF910895611104C080580E94A80008959D
:1001700080540E94A800089581E00E94A80008957C
:10018000CF93C82F0E949B00CA3049F4803410F4EA
:1001900080E401C080E080580E94A80004C061E0B3
:1001A0008C2F0E945100CF910895CF93DF93FC01D3
:1001B00003C00E94C000FE01EF01219680818111E1
:1001C000F8CFDF91CF9108951F93CF93DF93182F2E
:1001D00081B38F6081BB8AB380688ABB81B380643E
:1001E00081BB81B3806881BB80E393E70197F1F71E
:1001F00082B3826082BB82B3816082BB0E9449006D
:1002000080EF93E20197F1F70E944900C5E7D0E043
:10021000CE010197F1F70E944900CE010197F1F755
:1002200082B38E7F82BB0E9449002197F1F788E25A
:100230000E94A80088E00E94A8000E94BC0086E0FE
:100240000E94A800812F0E94A800DF91CF911F91EA
:10025000089580EF87BB8FEF88BB88B38F7088BB12
:10026000000086B38F708093EE008F30B1F78FEF70
:100270009FE80197F1F700C0000086B38F7080936C
:10028000EE008F30A1F396E626EE80E091502040FC
:100290008040E1F786B38F708093EE008F3039F3A2
:1002A0008FEE88BB000086B38F708093EE008F3096
:1002B00019F01092EF0027C08FED88BB000086B3C5
:1002C0008F708093EE008F3021F081E08093EF00FB
:1002D0001AC08FEB88BB000086B38F708093EE004E
:1002E0008F3021F082E08093EF000DC08FE788BB54
:1002F000000086B38F708093EE008F3009F4A9CF91
:1003000083E08093EF008091EE008E3059F4E0910D
:10031000EF00F0E0EE0FFF1FEE0FFF1FE359FF4F5E
:10032000808108958D3059F4E091EF00F0E0EE0FF8
:10033000FF1FEE0FFF1FE359FF4F818108958B30A0
:1003400059F4E091EF00F0E0EE0FFF1FEE0FFF1FFA
:10035000E359FF4F82810895E091EF00F0E0EE0F46
:10036000FF1FEE0FFF1FE359FF4F83810895809118
:10037000D4009091D5000097B1F01DC085B380588E
:1003800085BB2FEF8FEC92E0215080409040E1F749
:1003900000C00000809166009091670001979093E3
:1003A0006700809366008091660090916700181640
:1003B000190624F308950197E1F485B3805885BBAD
:1003C0002FEF8FEC92E0215080409040E1F700C089
:1003D0000000B099F2CFB099F0CF1092D5001092F2
:1003E000D40083E090E0909365008093640080E8FF
:1003F00085BB08958091EC009091ED0081309105CE
:1004000049F492B380E2892782BB84E191E09BBDED
:100410008ABD0895892B41F492B380E2892782BB7B
:100420008BE390E09BBD8ABD0895CF93DF93CDB75A
:10043000DEB760970FB6F894DEBF0FBECDBFBC012C
:1004400080E090E00E9441040E94A7040E940B04F7
:10045000DC01CB014AE0BE016F5F7F4F0E941105B6
:100460008091EA009091EB00009759F40E94BC0043
:1004700060E086E00E94B200CE0101960E94D500A5
:1004800014C0019791F40E94BC0060E086E00E94D5
:10049000B20086ED90E00E94D50061E086E00E9407
:1004A000B200CE0101960E94D5008091E8009091A3
:1004B000E900C29761F48091E6009091E700C2974D
:1004C00031F40E94BC008DE790E00E94D500609658
:1004D0000FB6F894DEBF0FBECDBFDF91CF91089568
:1004E000CF93DF9324B135B1ADECBCEC0E94F404A2
:1004F000EC01D695C795D695C795D695C795CE01EB
:10050000C19783309105F8F42091EA003091EB0017
:10051000232BC9F4B09929C0B09927C087B1816055
:1005200087B981E090E09093EB008093EA0082E34A
:1005300090E09093E9008093E8004AE066ED70E077
:100540000E94110512C0039780F48091EA009091F7
:10055000EB00019751F4B09908C0B09906C082E34E
:1005600090E09093E7008093E60086B1806486B9BE
:10057000349BFECFCE010E9415022FEF8FE593E052
:10058000215080409040E1F700C000008091E800D9
:100590009091E900C29709F0A5CF8091E600909173
:1005A000E700C29709F09ECF81E090E09093ED00C4
:1005B0008093EC0087B18E7F87B90E94FA01DF91AA
:1005C000CF910895609160007091610044E050E027
:1005D00088E690E00E940305892B71F58091EC007C
:1005E0009091ED00019741F51092ED001092EC0012
:1005F0000E94FA0182E090E0909367008093660089
:100600000E94B7011092E9001092E8001092E700F2
:100610001092E60080E1E6EDF0E0DF011D928A95A0
:10062000E9F71092EB001092EA000E94BC008AE801
:1006300090E00E94D5004DC060916200709163000F
:1006400044E050E088E690E00E940305892B41F1E8
:100650008091EC009091ED00029710F50E94BC0093
:1006600088E990E00E94D50086E090E090936700D2
:10067000809366000E94B7018091640090916500AC
:1006800001979093650080936400892B11F581E0B8
:1006900090E09093D5008093D4000E94B70119C0D8
:1006A0000E94BC0089EA90E00E94D50082E090E0C0
:1006B00090936700809366000E94B701BFEF2FE719
:1006C00086E1B15020408040E1F700C000000E9468
:1006D00070029FEFAFEBB1E29150A040B040E1F764
:1006E00000C00000E8E6F0E08AE29AE291838083AD
:1006F0009383828308950F931F93CF930E94BC002E
:1007000088EB90E00E94D500C0E011C00E94290152
:100710000C2F10E008591F4FF801808361E085E03D
:100720008C0F0E94B200C8010E94D500CF5FC43078
:1007300068F310926C000E942901813411F40E9428
:10074000E202CF911F910F9108951F920F920FB661
:100750000F9211248F939F939BB380E489278BBBC7
:100760009F918F910F900FBE0F901F9018951F9221
:100770000F920FB60F9211248F939F938091EC00EC
:100780009091ED00019721F492B380E2892782BB1A
:100790009F918F910F900FBE0F901F901895CF9340
:1007A0008AB380648ABB8FEF87BB18BA84B3806832
:1007B00084BB80E885BB81B3806281BB1DBC1CBC4F
:1007C0008FEF98E097BD86BD82E88FBD8BE18EBD2F
:1007D0008BE390E09BBD8ABDC0E1C9BF89E683BFC2
:1007E00088EC8CBF82E089BF789480E487B986E882
:1007F00086B98CE00E94E4000E94BC00E6EDF0E0C7
:10080000DF011D92CA95E9F7CF9108950E94CF03A9
:100810000E947B03FDCF0E9412046894B1110C94D6
:10082000A10408950E94860488F09F5798F0B92F7C
:100830009927B751B0F0E1F0660F771F881F991F15
:100840001AF0BA95C9F714C0B13091F00E94A00413
:10085000B1E008950C94A004672F782F8827B85F23
:1008600039F0B93FCCF3869577956795B395D9F76D
:100870003EF490958095709561957F4F8F4F9F4F77
:100880000895E89409C097FB3EF490958095709583
:1008900061957F4F8F4F9F4F9923A9F0F92F96E9CC
:1008A000BB279395F695879577956795B795F11141
:1008B000F8CFFAF4BB0F11F460FF1BC06F5F7F4FDE
:1008C0008F4F9F4F16C0882311F096E911C07723F0
:1008D00021F09EE8872F762F05C0662371F096E8F9
:1008E000862F70E060E02AF09A95660F771F881FC8
:1008F000DAF7880F9695879597F9089557FD9058E0
:10090000440F551F59F05F3F71F04795880F97FBD3
:10091000991F61F09F3F79F087950895121613068D
:100920001406551FF2CF4695F1DF08C016161706BC
:100930001806991FF1CF86957105610508940895F1
:10094000E894BB2766277727CB0197F908950E9483
:100950008604E8F09E37E8F09639B8F49E3848F4FB
:10096000672F782F8827985FF9CF869577956795B9
:1009700093959539D0F3B62FB1706B0F711D811D12
:1009800020F487957795679593950C94CB040C94F8
:10099000E6040C94A104882371F4772321F0985085
:1009A000872B762F07C0662311F499270DC090512D
:1009B000862B70E060E02AF09A95660F771F881FFB
:1009C000DAF7880F9695879597F908959F3F31F04C
:1009D000915020F4879577956795B795880F911D6D
:1009E0009695879597F90895A29FB001B39FC0018E
:1009F000A39F700D811D1124911DB29F700D811D4B
:100A00001124911D0895FB01DC014150504030F04C
:100A10008D910190801919F40020B9F7881B990B6A
:100A20000895BB274A3031F4992322F4BDE2909512
:100A300081959F4F0C941D05BB27FB015527AA27C5
:100A4000880F991FAA1FA41710F0A41B839550515B
:100A5000B9F7A05DAA3308F0A95DA193009779F7D3
:100A6000B111B1931192CB010C943605DC01FC015C
:100A7000672F71917723E1F7329704C07C916D93D2
:100A800070836291AE17BF07C8F30895F894FFCF43
:100A9000C900CE00030006002A2A2A2A0031343772
:100AA0002A3235383033363923414243444F747645
:100AB0006F72656E207365662100536566207A61EA
:100AC00074766F72656E21004E65746F636E61207F
:100AD0006C6F7A696E6B612100546F636E61206C7C
:100AE0006F7A696E6B612100556E6573697465205C
:100AF0006C6F7A696E6B75210023232323003131DB
:040B0000313100008F
:00000001FF
