S01300007365662D70726F6A6563742E73726563AF
S11300000C942A000C9447000C9447000C9447006D
S11300100C9447000C9447000C94B4030C944700D0
S11300200C9447000C9447000C9447000C94470030
S11300300C9447000C9447000C9447000C94470020
S11300400C9447000C9447000C9447000C94A203B2
S11300500C94470011241FBECFE5D4E0DEBFCDBF12
S113006010E0A0E6B0E0E8E9FAE002C005900D92E5
S1130070A43DB107D9F721E0A4EDB0E001C01D9281
S1130080A030B207E1F70E940A040C944A050C94CC
S1130090000082B3806882BB00C082B38F7782BBCA
S11300A00895CF93DF93D82F662321F08BB3806814
S11300B08BBB03C08BB38F778BBB82B38F7B82BB2D
S11300C081B38F6081BBC2B3C07F8D2F82958F7047
S11300D08C2B82BB0E944900DF70DC2BD2BB0E94B8
S11300E04900CF60C2BBDF91CF910895882321F0EE
S11300F08BB380688BBB03C08BB38F778BBB82B30E
S1130100806482BB81B3807F81BB82B3806882BB01
S113011000C090B39295907F82B38F7782BB00C06A
S113012082B3806882BB00C080B38F7022B32F7704
S113013022BB892B089580E00E9476008823DCF39B
S113014083E090E00197F1F780E00E947600089543
S1130150CF93C82F0E949B0060E08C2F0E94510017
S1130160CF910895611104C080580E94A800089599
S113017080540E94A800089581E00E94A800089578
S1130180CF93C82F0E949B00CA3049F4803410F4E6
S113019080E401C080E080580E94A80004C061E0AF
S11301A08C2F0E945100CF910895CF93DF93FC01CF
S11301B003C00E94C000FE01EF01219680818111DD
S11301C0F8CFDF91CF9108951F93CF93DF93182F2A
S11301D081B38F6081BB8AB380688ABB81B380643A
S11301E081BB81B3806881BB80E393E70197F1F71A
S11301F082B3826082BB82B3816082BB0E94490069
S113020080EF93E20197F1F70E944900C5E7D0E03F
S1130210CE010197F1F70E944900CE010197F1F751
S113022082B38E7F82BB0E9449002197F1F788E256
S11302300E94A80088E00E94A8000E94BC0086E0FA
S11302400E94A800812F0E94A800DF91CF911F91E6
S1130250089580EF87BB8FEF88BB88B38F7088BB0E
S1130260000086B38F708093FE008F30B1F78FEF5C
S11302709FE80197F1F700C0000086B38F70809368
S1130280FE008F30A1F396E626EE80E091502040E8
S11302908040E1F786B38F708093FE008F3039F38E
S11302A08FEE88BB000086B38F708093FE008F3082
S11302B019F01092FF0027C08FED88BB000086B3B1
S11302C08F708093FE008F3021F081E08093FF00D7
S11302D01AC08FEB88BB000086B38F708093FE003A
S11302E08F3021F082E08093FF000DC08FE788BB40
S11302F0000086B38F708093FE008F3009F4A9CF7D
S113030083E08093FF008091FE008E3059F4E091E9
S1130310FF00F0E0EE0FFF1FEE0FFF1FE359FF4F4A
S1130320808108958D3059F4E091FF00F0E0EE0FE4
S1130330FF1FEE0FFF1FE359FF4F818108958B309C
S113034059F4E091FF00F0E0EE0FFF1FEE0FFF1FE6
S1130350E359FF4F82810895E091FF00F0E0EE0F32
S1130360FF1FEE0FFF1FE359FF4F83810895809114
S1130370D4009091D5000097B1F01DC085B380588A
S113038085BB2FEF8FE392E0215080409040E1F74E
S113039000C00000809166009091670001979093DF
S11303A0670080936600809166009091670018163C
S11303B0190624F308950197E1F485B3805885BBA9
S11303C02FEF8FE392E0215080409040E1F700C08E
S11303D00000B099F2CFB099F0CF1092D5001092EE
S11303E0D40083E090E0909365008093640080E8FB
S11303F085BB08958091FC009091FD0081309105AA
S113040049F492B380E2892782BB84E191E09BBDE9
S11304108ABD0895892B41F492B380E2892782BB77
S11304208BE390E09BBD8ABD0895CF93DF93CDB756
S1130430DEB760970FB6F894DEBF0FBECDBFBC0128
S113044080E090E00E9445040E94AB040E940F04E7
S1130450DC01CB014AE0BE016F5F7F4F0E941505AE
S11304608091FA009091FB00009759F40E94BC001F
S113047060E086E00E94B200CE0101960E94D500A1
S113048014C0019791F40E94BC0060E086E00E94D1
S1130490B20086EE90E00E94D50061E086E00E9402
S11304A0B200CE0101960E94D5008091F80090918F
S11304B0F900C29761F48091F6009091F700C29719
S11304C031F40E94BC008DE790E00E94D500609654
S11304D00FB6F894DEBF0FBECDBFDF91CF91089564
S11304E0CF93DF9324B135B1ADECBCEC0E94F8049A
S11304F0EC01D695C795D695C795D695C795CE01E7
S1130500C19783309105F8F42091FA003091FB00F3
S1130510232BC9F4B09929C0B09927C087B1816051
S113052087B981E090E09093FB008093FA0082E326
S113053090E09093F9008093F8004AE066EE70E052
S11305400E94150512C0039780F48091FA009091DF
S1130550FB00019751F4B09908C0B09906C082E33A
S113056090E09093F7008093F60086B1806486B99A
S1130570349BFECFCE010E9415022FEF8FE593E04E
S1130580215080409040E1F700C000008091F800C5
S11305909091F900C29709F0A5CF8091F60090914F
S11305A0F700C29709F09ECF81E090E09093FD00A0
S11305B08093FC000E94FA01DF91CF91089560912D
S11305C060007091610044E050E088E690E00E9491
S11305D00705892B71F58091FC009091FD0001972E
S11305E041F51092FD001092FC000E94FA0182E095
S11305F090E090936700809366000E94B701109288
S1130600F9001092F8001092F7001092F60080E1C1
S1130610E6EEF0E0DF011D928A95E9F71092FB0007
S11306201092FA000E94BC008AE890E00E94D50073
S11306304DC0609162007091630044E050E088E630
S113064090E00E940705892B41F18091FC00909174
S1130650FD00892B11F50E94BC0088E990E00E94FE
S1130660D50086E090E090936700809366000E9436
S1130670B7018091640090916500019790936500A3
S113068080936400892B11F581E090E09093D5006C
S11306908093D4000E94B70119C00E94BC0089EA6B
S11306A090E00E94D50082E090E0909367008093F0
S11306B066000E94B701BFEF2FE786E1B1502040EA
S11306C08040E1F700C000000E9470029FEFAFEB92
S11306D0B1E29150A040B040E1F700C00000E8E66C
S11306E0F0E08AE29AE2918380839383828308957F
S11306F00F931F93CF930E94BC0088EB90E00E945D
S1130700D500C0E011C00E9429010C2F10E0085947
S11307101F4FF801808361E085E08C0F0E94B200D6
S1130720C8010E94D500CF5FC43068F310926C00FA
S11307300E942901813411F40E94DF02CF911F919C
S11307400F9108951F920F920FB60F9211248F9359
S11307509F939BB380E489278BBB9F918F910F90CC
S11307600FBE0F901F9018951F920F920FB60F9205
S113077011248F939F938091FC009091FD00019729
S113078021F492B380E2892782BB9F918F910F90CD
S11307900FBE0F901F901895CF938AB380648ABBC5
S11307A08FEF87BB18BA84B3806884BB80E885BBAD
S11307B081B3806281BB1DBC1CBC8FEF98E097BDE8
S11307C086BD82E88FBD8BE18EBD8BE390E09BBD3F
S11307D08ABDC0E1C9BF89E683BF88EC8CBF82E0D3
S11307E089BF789480E487B986E886B98CE00E9452
S11307F0E4000E94BC00E6EEF0E0DF018C2F1D92C5
S11308008A95E9F7E6EDF0E0DF011D92CA95E9F774
S1130810CF9108950E94CC030E947803FDCF0E94DB
S113082016046894B1110C94A50408950E948A04D6
S113083088F09F5798F0B92F9927B751B0F0E1F09D
S1130840660F771F881F991F1AF0BA95C9F714C04D
S1130850B13091F00E94A404B1E008950C94A40472
S1130860672F782F8827B85F39F0B93FCCF3869586
S113087077956795B395D9F73EF4909580957095E3
S113088061957F4F8F4F9F4F0895E89409C097FB60
S11308903EF490958095709561957F4F8F4F9F4F53
S11308A09923A9F0F92F96E9BB279395F695879597
S11308B077956795B795F111F8CFFAF4BB0F11F45A
S11308C060FF1BC06F5F7F4F8F4F9F4F16C0882301
S11308D011F096E911C0772321F09EE8872F762F37
S11308E005C0662371F096E8862F70E060E02AF078
S11308F09A95660F771F881FDAF7880F9695879564
S113090097F9089557FD9058440F551F59F05F3FCC
S113091071F04795880F97FB991F61F09F3F79F01D
S113092087950895121613061406551FF2CF46959F
S1130930F1DF08C0161617061806991FF1CF869521
S11309407105610508940895E894BB276627772705
S1130950CB0197F908950E948A04E8F09E37E8F0E5
S11309609639B8F49E3848F4672F782F8827985F13
S1130970F9CF86957795679593959539D0F3B62FEA
S1130980B1706B0F711D811D20F487957795679564
S113099093950C94CF040C94EA040C94A504882336
S11309A071F4772321F09850872B762F07C06623A4
S11309B011F499270DC09051862B70E060E02AF065
S11309C09A95660F771F881FDAF7880F9695879593
S11309D097F908959F3F31F0915020F487957795CA
S11309E06795B795880F911D9695879597F9089502
S11309F0A29FB001B39FC001A39F700D811D11245C
S1130A00911DB29F700D811D1124911D0895FB014C
S1130A10DC014150504030F08D910190801919F45F
S1130A200020B9F7881B990B0895BB274A3031F48D
S1130A30992322F4BDE2909581959F4F0C94210552
S1130A40BB27FB015527AA27880F991FAA1FA417A4
S1130A5010F0A41B83955051B9F7A05DAA3308F098
S1130A60A95DA193009779F7B111B1931192CB01CC
S1130A700C943A05DC01FC01672F71917723E1F7AF
S1130A80329704C07C916D9370836291AE17BF0757
S10B0A90C8F30895F894FFCFA8
S1130A98C900CE00030006002A2A2A2A0031343766
S1130AA82A3235383033363923414243444F747639
S1130AB86F72656E207365662100536566207A61DE
S1130AC874766F72656E21004E65746F636E612073
S1130AD86C6F7A696E6B612100546F636E61206C70
S1130AE86F7A696E6B612100556E65736974652050
S1130AF86C6F7A696E6B75210023232323003131CF
S1070B083131000083
S9030000FC
