:100000000C942A000C9447000C9447000C94470071
:100010000C9447000C9447000C9447000C94470044
:100020000C9447000C9447000C9447000C94470034
:100030000C9447000C9447000C9447000C94470024
:100040000C9447000C9447000C9447000C94B701A3
:100050000C94470011241FBECFE5D4E0DEBFCDBF16
:1000600010E0A0E6B0E0E8EDF4E002C005900D92EB
:10007000AA39B107D9F720E0AAE9B0E001C01D9282
:10008000A03AB207E1F70E9457020C946A020C945E
:10009000000082B3806882BB00C082B38F7782BBCE
:1000A0000895CF93DF93D82F662321F082B3806227
:1000B00082BB03C082B38F7D82BB82B38F7B82BB46
:1000C00087B38F6087BBC8B3C07F8D2F82958F7039
:1000D0008C2B88BB0E944900DF70DC2BD8BB0E94B0
:1000E0004900CF60C8BBDF91CF910895882321F0EC
:1000F00082B3806282BB03C082B38F7D82BB82B336
:10010000806482BB87B3807F87BB82B3806882BBF9
:1001100000C096B39295907F82B38F7782BB00C068
:1001200082B3806882BB00C086B38F7022B32F7702
:1001300022BB892B089580E00E9476008823DCF39F
:1001400083E090E00197F1F780E00E947600089547
:10015000CF93C82F0E949B0060E08C2F0E9451001B
:10016000CF910895611104C080580E94A80008959D
:1001700080540E94A800089581E00E94A80008957C
:10018000CF93C82F0E949B00CA3049F4803410F4EA
:1001900080E401C080E080580E94A80004C061E0B3
:1001A0008C2F0E945100CF910895CF93DF93FC01D3
:1001B00003C00E94C000FE01EF01219680818111E1
:1001C000F8CFDF91CF9108951F93CF93DF93182F2E
:1001D00087B38F6087BB81B3806281BB81B380644A
:1001E00081BB81B3806881BB80E393E70197F1F71E
:1001F00088B3826088BB88B3816088BB0E94490055
:1002000080EF93E20197F1F70E944900C5E7D0E043
:10021000CE010197F1F70E944900CE010197F1F755
:1002200088B38E7F88BB0E9449002197F1F788E24E
:100230000E94A80088E00E94A8000E94BC0086E0FE
:100240000E94A800812F0E94A800DF91CF911F91EA
:10025000089580EF8ABB8FEF8BBB8BB38F708BBB06
:10026000000089B38F7080939E008F30B1F78FEFBD
:100270009FE80197F1F700C0000089B38F70809369
:100280009E008F30A1F396E626EE80E0915020404C
:100290008040E1F789B38F7080939E008F3039F3EF
:1002A0008FEE8BBB000089B38F7080939E008F30E0
:1002B00019F010929F0027C08FED8BBB000089B30F
:1002C0008F7080939E008F3021F081E080939F009B
:1002D0001AC08FEB8BBB000089B38F7080939E0098
:1002E0008F3021F082E080939F000DC08FE78BBBA1
:1002F000000089B38F7080939E008F3009F4A9CFDE
:1003000083E080939F0080919E008E3059F4E091AD
:100310009F00F0E0EE0FFF1FEE0FFF1FEC59FF4FA5
:10032000808108958D3059F4E0919F00F0E0EE0F48
:10033000FF1FEE0FFF1FEC59FF4F818108958B3097
:1003400059F4E0919F00F0E0EE0FFF1FEE0FFF1F4A
:10035000EC59FF4F82810895E0919F00F0E0EE0F8D
:10036000FF1FEE0FFF1FEC59FF4F838108951F926F
:100370000F920FB60F9211242F938F939F931EC04D
:100380008FEF85BB2FEF8FE392E0215080409040AC
:10039000E1F700C0000015BA2FEF8FE392E0215083
:1003A00080409040E1F700C0000080916200909191
:1003B00063000197909363008093620080916200D4
:1003C0009091630018161906DCF299B782E089272C
:1003D00089BF8FEF85BB83E090E0909363008093AB
:1003E00062009F918F912F910F900FBE0F901F90E1
:1003F000189582E089BF0895609160007091610056
:1004000044E050E08AE990E00E945C02892B49F0C8
:100410000E94BC0084E790E00E94D5000E94F90190
:1004200006C00E94BC0085E890E00E94D50084E0F0
:10043000EAE9F0E0DF011D928A95E9F70895CF938C
:10044000C0E012C00E942901EC2FF0E0E656FF4FF9
:10045000808360E08C2F0E94B2000E94BC008AE979
:1004600090E00E94D500CF5FC43060F310929E00F0
:100470000E94FC01CF91089580E181BB8FEF8ABB80
:100480001BBA81E084BB85BB81E28FBD8AE08EBD53
:1004900086E490E099BD88BD8DE083BF84E68CBF83
:1004A00078948CE00E94E4000E94BC0008950E94B1
:1004B0003C020E941F02FDCFFB01DC014150504075
:1004C00030F08D910190801919F40020B9F7881B44
:0804D000990B0895F894FFCF89
:1004D800940003003134372A323538303336392323
:1004E800414243444E65746F636E61206C6F7A6954
:1004F8006E6B612100546F636E61206C6F7A696E58
:0A0508006B61210031313131000038
:00000001FF
