S01300007365662D70726F6A6563742E73726563AF
S11300000C942A000C9447000C9447000C9447006D
S11300100C9447000C9447000C94FA030C9447008A
S11300200C9447000C9447000C9447000C94470030
S11300300C9447000C9447000C9447000C94470020
S11300400C9447000C9447000C9447000C94E8036C
S11300500C94470011241FBECFE5D4E0DEBFCDBF12
S113006010E0A0E6B0E0E0E2FBE002C005900D92F3
S1130070A23DB107D9F720E0A2EDB0E001C01D9286
S1130080A03FB207E1F70E944E040C948E050C9435
S1130090000082B3806882BB00C082B38F7782BBCA
S11300A00895CF93DF93D82F662321F08BB3806814
S11300B08BBB03C08BB38F778BBB82B38F7B82BB2D
S11300C081B38F6081BBC2B3C07F8D2F82958F7047
S11300D08C2B82BB0E944900DF70DC2BD2BB0E94B8
S11300E04900CF60C2BBDF91CF910895882321F0EE
S11300F08BB380688BBB03C08BB38F778BBB82B30E
S1130100806482BB81B3807F81BB82B3806882BB01
S113011000C090B39295907F82B38F7782BB00C06A
S113012082B3806882BB00C080B38F7022B32F7704
S113013022BB892B089580E00E9476008823DCF39B
S113014083E090E00197F1F780E00E947600089543
S1130150CF93C82F0E949B0060E08C2F0E94510017
S1130160CF910895611104C080580E94A800089599
S113017080540E94A800089581E00E94A800089578
S1130180CF93C82F0E949B00CA3049F4803410F4E6
S113019080E401C080E080580E94A80004C061E0AF
S11301A08C2F0E945100CF910895CF93DF93FC01CF
S11301B003C00E94C000FE01EF01219680818111DD
S11301C0F8CFDF91CF9108951F93CF93DF93182F2A
S11301D081B38F6081BB8AB380688ABB81B380643A
S11301E081BB81B3806881BB80E393E70197F1F71A
S11301F082B3826082BB82B3816082BB0E94490069
S113020080EF93E20197F1F70E944900C5E7D0E03F
S1130210CE010197F1F70E944900CE010197F1F751
S113022082B38E7F82BB0E9449002197F1F788E256
S11302300E94A80088E00E94A8000E94BC0086E0FA
S11302400E94A800812F0E94A800DF91CF911F91E6
S1130250089580EF87BB8FEF88BB88B38F7088BB0E
S1130260000086B38F708093EE008F30B1F78FEF6C
S11302709FE80197F1F700C0000086B38F70809368
S1130280EE008F30A1F396E626EE80E091502040F8
S11302908040E1F786B38F708093EE008F3039F39E
S11302A08FEE88BB000086B38F708093EE008F3092
S11302B019F01092EF0027C08FED88BB000086B3C1
S11302C08F708093EE008F3021F081E08093EF00F7
S11302D01AC08FEB88BB000086B38F708093EE004A
S11302E08F3021F082E08093EF000DC08FE788BB50
S11302F0000086B38F708093EE008F3009F4A9CF8D
S113030083E08093EF008091EE008E3059F4E09109
S1130310EF00F0E0EE0FFF1FEE0FFF1FE559FF4F58
S1130320808108958D3059F4E091EF00F0E0EE0FF4
S1130330FF1FEE0FFF1FE559FF4F818108958B309A
S113034059F4E091EF00F0E0EE0FFF1FEE0FFF1FF6
S1130350E559FF4F82810895E091EF00F0E0EE0F40
S1130360FF1FEE0FFF1FE559FF4F83810895809112
S1130370D2009091D3000097B1F01DC085B380588E
S113038085BB2FEF8FEC92E0215080409040E1F745
S113039000C000008091EC009091ED0001979093D3
S11303A0ED008093EC008091EC009091ED00181624
S11303B0190624F308950197A9F595B383EC8927C9
S11303C085BB9BB388E389278BBB2FEF8FEC92E02F
S11303D0215080409040E1F700C00000B099EDCF7B
S11303E0B099EBCF1092D3001092D20083E090E04A
S11303F0909365008093640085B3806885BB809189
S1130400EA009091EB00892B39F485B3836485BBB2
S11304108BB3877C8BBB089585B38C7B85BB8BB3F7
S113042088638BBB08958091EA009091EB00813042
S1130430910549F492B380E2892782BB84E191E07B
S11304409BBD8ABD0895892B41F492B380E289272C
S113045082BB8BE390E09BBD8ABD0895CF93DF936D
S1130460CDB7DEB760970FB6F894DEBF0FBECDBF31
S1130470BC0180E090E00E9489040E94EF040E9485
S11304805304DC01CB014AE0BE016F5F7F4F0E9441
S113049059058091E8009091E900009759F40E9471
S11304A0BC0060E086E00E94B200CE0101960E948A
S11304B0D50014C0019791F40E94BC0060E086E06E
S11304C00E94B20084ED90E00E94D50061E086E0D5
S11304D00E94B200CE0101960E94D5008091E600F0
S11304E09091E700C29761F48091E4009091E50057
S11304F0C29731F40E94BC008BE790E00E94D500C3
S113050060960FB6F894DEBF0FBECDBFDF91CF91DA
S11305100895CF93DF9324B135B1ADECBCEC0E94C8
S11305203C05EC01D695C795D695C795D695C79544
S1130530CE01C1978330910578F52091E800309180
S1130540E900232B49F5B09949C0B09947C087B158
S1130550816087B981E090E09093E9008093E8009E
S113056082E390E09093E7008093E6004AE064ED34
S113057070E00E94590595B381E0892785BB9BB340
S113058080E189278BBB82E090E09093ED0080931B
S1130590EC000E94B70122C0039700F58091E800A7
S11305A09091E9000197D1F4B09918C0B09916C0A0
S11305B082E390E09093E5008093E40095B382E0B9
S11305C0892785BB9BB388E089278BBB82E090E0B9
S11305D09093ED008093EC000E94B70186B1806493
S11305E086B9349BFECFCE010E942E022FEF8FE5F9
S11305F093E0215080409040E1F700C000008091DA
S1130600E6009091E700C29709F085CF8091E4005D
S11306109091E500C29709F07ECF81E090E090933D
S1130620EB008093EA0087B18E7F87B90E941302A2
S1130630DF91CF910895609160007091610044E072
S113064050E086E690E00E944B05892BB1F580913D
S1130650EA009091EB00019781F51092EB00109263
S1130660EA000E94130282E090E09093ED008093F0
S1130670EC000E94B70195B383E4892785BB9BB343
S113068088E389278BBB1092E7001092E600109252
S1130690E5001092E40080E1E4EDF0E0DF011D925A
S11306A08A95E9F71092E9001092E8000E94BC00D4
S11306B088E890E00E94D5004FC06091620070917C
S11306C0630044E050E086E690E00E944B05892BED
S11306D011F10E94BC0086E990E00E94D50086E0FA
S11306E090E09093ED008093EC000E94B70180911C
S11306F06400909165000197909365008093640075
S1130700892B51F581E090E09093D3008093D2003F
S11307100E94B70121C00E94BC0087EA90E00E94B9
S1130720D50082E090E09093ED008093EC000E946D
S1130730B70195B380E4892785BB9BB380E2892701
S11307408BBBBFEF2FE786E1B15020408040E1F73B
S113075000C000000E9489029FEFAFEBB1E291500C
S1130760A040B040E1F700C00000E6E6F0E08AE215
S11307709AE2918380839383828308950F931F93D6
S1130780CF930E94BC0086EB90E00E94D500C0E0AD
S113079011C00E9429010C2F10E00A591F4FF801C3
S11307A0808361E085E08C0F0E94B200C8010E9442
S11307B0D500CF5FC43068F310926A000E9429010B
S11307C0813411F40E941B03CF911F910F9108955E
S11307D01F920F920FB60F9211248F939F939BB386
S11307E080E489278BBB9F918F910F900FBE0F9050
S11307F01F9018951F920F920FB60F9211248F938A
S11308009F938091EA009091EB00019721F492B3B9
S113081080E2892782BB9F918F910F900FBE0F902A
S11308201F901895CF938AB380648ABB8FEF87BBE0
S113083018BA80E884BB84B3836484BB83EC85BB2F
S11308408AB388638ABB81B3806281BB1DBC1CBC34
S11308508FEF98E097BD86BD82E88FBD8BE18EBD9A
S11308608BE390E09BBD8ABDC0E1C9BF89E683BF2D
S113087088EC8CBF82E089BF789480E487B986E8ED
S113088086B98CE00E94E4000E94BC00E4EDF0E034
S1130890DF011D92CA95E9F7CF9108950E941204D1
S11308A00E94BE03FDCF0E945A046894B1110C94B7
S11308B0E90408950E94CE0488F09F5798F0B92F58
S11308C09927B751B0F0E1F0660F771F881F991F81
S11308D01AF0BA95C9F714C0B13091F00E94E80437
S11308E0B1E008950C94E804672F782F8827B85F47
S11308F039F0B93FCCF3869577956795B395D9F7D9
S11309003EF490958095709561957F4F8F4F9F4FE2
S11309100895E89409C097FB3EF4909580957095EE
S113092061957F4F8F4F9F4F9923A9F0F92F96E937
S1130930BB279395F695879577956795B795F111AC
S1130940F8CFFAF4BB0F11F460FF1BC06F5F7F4F49
S11309508F4F9F4F16C0882311F096E911C077235B
S113096021F09EE8872F762F05C0662371F096E864
S1130970862F70E060E02AF09A95660F771F881F33
S1130980DAF7880F9695879597F9089557FD90584B
S1130990440F551F59F05F3F71F04795880F97FB3F
S11309A0991F61F09F3F79F08795089512161306F9
S11309B01406551FF2CF4695F1DF08C01616170628
S11309C01806991FF1CF869571056105089408955D
S11309D0E894BB2766277727CB0197F908950E94EF
S11309E0CE04E8F09E37E8F09639B8F49E3848F41F
S11309F0672F782F8827985FF9CF86957795679525
S1130A0093959539D0F3B62FB1706B0F711D811D7D
S1130A1020F487957795679593950C9413050C941A
S1130A202E050C94E904882371F4772321F098505F
S1130A30872B762F07C0662311F499270DC0905198
S1130A40862B70E060E02AF09A95660F771F881F66
S1130A50DAF7880F9695879597F908959F3F31F0B7
S1130A60915020F4879577956795B795880F911DD8
S1130A709695879597F90895A29FB001B39FC001F9
S1130A80A39F700D811D1124911DB29F700D811DB6
S1130A901124911D0895FB01DC014150504030F0B8
S1130AA08D910190801919F40020B9F7881B990BD6
S1130AB00895BB274A3031F4992322F4BDE290957E
S1130AC081959F4F0C946505BB27FB015527AA27E9
S1130AD0880F991FAA1FA41710F0A41B83955051C7
S1130AE0B9F7A05DAA3308F0A95DA193009779F73F
S1130AF0B111B1931192CB010C947E05DC01FC0180
S1130B00672F71917723E1F7329704C07C916D933D
S1130B1070836291AE17BF07C8F30895F894FFCFAE
S1130B20C700CC0003002A2A2A2A003134372A328B
S1130B3035383033363923414243444F74766F722B
S1130B40656E207365662100536566207A6174764C
S1130B506F72656E21004E65746F636E61206C6FF9
S1130B607A696E6B612100546F636E61206C6F7AD9
S1130B70696E6B612100556E6573697465206C6FD5
S1130B807A696E6B752100232323230031353938AC
S1050B9000005F
S9030000FC
